{
    "_format": "hh3-artifact-1",
    "contractName": "CertiChain",
    "sourceName": "contracts/CertiChain.sol",
    "contractAddress": "0xF82d44De7D594f8d47c38a2c7208Fac85554C0d8",
    "abi": [
        {
            "inputs": [],
            "stateMutability": "nonpayable",
            "type": "constructor"
        },
        {
            "anonymous": false,
            "inputs": [
                {
                    "indexed": true,
                    "internalType": "bytes32",
                    "name": "fileHash",
                    "type": "bytes32"
                },
                {
                    "indexed": true,
                    "internalType": "address",
                    "name": "issuer",
                    "type": "address"
                },
                {
                    "indexed": false,
                    "internalType": "bytes32",
                    "name": "studentidHash",
                    "type": "bytes32"
                },
                {
                    "indexed": false,
                    "internalType": "uint256",
                    "name": "issuedAt",
                    "type": "uint256"
                }
            ],
            "name": "CertificateRegistered",
            "type": "event"
        },
        {
            "anonymous": false,
            "inputs": [
                {
                    "indexed": true,
                    "internalType": "address",
                    "name": "issuerAddress",
                    "type": "address"
                }
            ],
            "name": "IssuerAuthorized",
            "type": "event"
        },
        {
            "inputs": [
                {
                    "internalType": "address",
                    "name": "_issuerAddress",
                    "type": "address"
                }
            ],
            "name": "authorizeIssuer",
            "outputs": [],
            "stateMutability": "nonpayable",
            "type": "function"
        },
        {
            "inputs": [
                {
                    "internalType": "bytes32",
                    "name": "",
                    "type": "bytes32"
                }
            ],
            "name": "certificates",
            "outputs": [
                {
                    "internalType": "bytes32",
                    "name": "studentIdHash",
                    "type": "bytes32"
                },
                {
                    "internalType": "address",
                    "name": "issuer",
                    "type": "address"
                },
                {
                    "internalType": "uint256",
                    "name": "issuedAt",
                    "type": "uint256"
                },
                {
                    "internalType": "bool",
                    "name": "isValid",
                    "type": "bool"
                }
            ],
            "stateMutability": "view",
            "type": "function"
        },
        {
            "inputs": [],
            "name": "contractOwner",
            "outputs": [
                {
                    "internalType": "address",
                    "name": "",
                    "type": "address"
                }
            ],
            "stateMutability": "view",
            "type": "function"
        },
        {
            "inputs": [
                {
                    "internalType": "address",
                    "name": "",
                    "type": "address"
                }
            ],
            "name": "isAuthorizedIssuer",
            "outputs": [
                {
                    "internalType": "bool",
                    "name": "",
                    "type": "bool"
                }
            ],
            "stateMutability": "view",
            "type": "function"
        },
        {
            "inputs": [
                {
                    "internalType": "bytes32",
                    "name": "_fileHash",
                    "type": "bytes32"
                },
                {
                    "internalType": "bytes32",
                    "name": "_studentIdHash",
                    "type": "bytes32"
                }
            ],
            "name": "registerCertificate",
            "outputs": [],
            "stateMutability": "nonpayable",
            "type": "function"
        },
        {
            "inputs": [
                {
                    "internalType": "address",
                    "name": "_issuerAddress",
                    "type": "address"
                }
            ],
            "name": "revokeIssuer",
            "outputs": [],
            "stateMutability": "nonpayable",
            "type": "function"
        },
        {
            "inputs": [
                {
                    "internalType": "bytes32",
                    "name": "_fileHash",
                    "type": "bytes32"
                }
            ],
            "name": "verifyCertificate",
            "outputs": [
                {
                    "internalType": "address",
                    "name": "_issuer",
                    "type": "address"
                },
                {
                    "internalType": "uint256",
                    "name": "_isssedAt",
                    "type": "uint256"
                },
                {
                    "internalType": "bytes32",
                    "name": "_studentIdHash",
                    "type": "bytes32"
                },
                {
                    "internalType": "bool",
                    "name": "_isValid",
                    "type": "bool"
                }
            ],
            "stateMutability": "view",
            "type": "function"
        }
    ],
    "bytecode": "0x6080604052348015600e575f5ffd5b50600280546001600160a01b031916339081179091555f818152600160208190526040808320805460ff1916909217909155517f8b4006ca14f23d4e7aa8d120d1ab7c3761d650eefac1a5d6732dbea94b54ea249190a2610664806100725f395ff3fe608060405234801561000f575f5ffd5b5060043610610079575f3560e01c8063742f068811610058578063742f0688146100dc578063850c176814610147578063ccf4a58b14610186578063ce606ee014610199575f5ffd5b80626296791461007d57806331ba196614610092578063436693d5146100c9575b5f5ffd5b61009061008b36600461057b565b6101c4565b005b6100b46100a036600461057b565b60016020525f908152604090205460ff1681565b60405190151581526020015b60405180910390f35b6100906100d736600461057b565b61025f565b61011d6100ea3660046105a8565b5f60208190529081526040902080546001820154600283015460039093015491926001600160a01b039091169160ff1684565b604080519485526001600160a01b03909316602085015291830152151560608201526080016100c0565b61015a6101553660046105a8565b61031f565b604080516001600160a01b039095168552602085019390935291830152151560608201526080016100c0565b6100906101943660046105bf565b6103f4565b6002546101ac906001600160a01b031681565b6040516001600160a01b0390911681526020016100c0565b6002546001600160a01b031633146101f75760405162461bcd60e51b81526004016101ee906105df565b60405180910390fd5b6001600160a01b03811661023f5760405162461bcd60e51b815260206004820152600f60248201526e496e76616c6964206164647265737360881b60448201526064016101ee565b6001600160a01b03165f908152600160205260409020805460ff19169055565b6002546001600160a01b031633146102895760405162461bcd60e51b81526004016101ee906105df565b6001600160a01b0381166102d15760405162461bcd60e51b815260206004820152600f60248201526e496e76616c6964206164647265737360881b60448201526064016101ee565b6001600160a01b0381165f818152600160208190526040808320805460ff1916909217909155517f8b4006ca14f23d4e7aa8d120d1ab7c3761d650eefac1a5d6732dbea94b54ea249190a250565b5f8181526020818152604080832081516080810183528154815260018201546001600160a01b03169381019390935260028101549183018290526003015460ff1615156060830152829182918291901580159061037d575080606001515b6103d35760405162461bcd60e51b815260206004820152602160248201527f4365727469666963617465206e6f7420666f756e64206f7220696e76616c69646044820152601760f91b60648201526084016101ee565b60208101516040820151825160609093015191989097509195509350915050565b335f9081526001602052604090205460ff1661046c5760405162461bcd60e51b815260206004820152603160248201527f4f6e6c7920616e20617574686f72697a6564206973737565722063616e20697360448201527039bab29031b2b93a34b334b1b0ba32b99760791b60648201526084016101ee565b5f82815260208190526040902060020154156104ca5760405162461bcd60e51b815260206004820152601f60248201527f436572746966696361746520616c726561647920726567697374657265642e0060448201526064016101ee565b60408051608081018252828152336020808301828152428486018181526001606087018181525f8b815280875289902097518855935190870180546001600160a01b0319166001600160a01b0390921691909117905551600286015590516003909401805460ff1916941515949094179093558351858152908101929092529184917ffb62d7d96831a0779f5c8ccf8a667f70cda9dabbef7e461f674c05fbe93423d9910160405180910390a35050565b5f6020828403121561058b575f5ffd5b81356001600160a01b03811681146105a1575f5ffd5b9392505050565b5f602082840312156105b8575f5ffd5b5035919050565b5f5f604083850312156105d0575f5ffd5b50508035926020909101359150565b6020808252602f908201527f4f6e6c792074686520636f6e7472616374206f776e65722063616e2063616c6c60408201526e103a3434b990333ab731ba34b7b71760891b60608201526080019056fea26469706673582212201a462f7e6a65f66f1e064fb9932c45850bd2e1ea41d000ddd516e2a206fb858564736f6c634300081c0033",
    "linkReferences": {},
    "deployedLinkReferences": {},
    "immutableReferences": {},
    "inputSourceName": "project/contracts/CertiChain.sol",
    "buildInfoId": "solc-0_8_28-98a5633abecd0bdf7386daf3acfd835c9f675a3c"
}